:020000040804EE
:10000000000002206D090408E5080408F30804084C
:10001000F9080408FF0804080509040800000000A6
:100020000000000000000000000000000B090408B0
:10003000190904080000000027090408350904080C
:10004000BD090408BD090408BD090408BD09040868
:10005000BD090408BD090408BD090408BD09040858
:10006000BD090408BD090408BD090408BD09040848
:10007000BD090408BD090408BD090408BD09040838
:10008000BD090408BD090408BD090408BD09040828
:10009000BD090408BD090408BD090408BD09040818
:1000A000BD090408BD090408BD090408BD09040808
:1000B000BD090408BD090408BD090408BD090408F8
:1000C000BD090408BD090408BD090408BD090408E8
:1000D000BD090408BD090408BD090408BD090408D8
:1000E000BD090408BD090408BD090408BD090408C8
:1000F000BD090408BD090408BD090408BD090408B8
:10010000BD090408BD090408BD090408BD090408A7
:10011000BD090408BD090408BD090408BD09040897
:10012000BD090408BD090408BD090408BD09040887
:10013000BD090408BD090408BD090408BD09040877
:10014000BD090408BD090408BD090408BD09040867
:10015000BD090408BD090408BD090408BD09040857
:10016000BD090408BD090408BD090408BD09040847
:10017000BD090408BD090408BD0904080000000009
:08018000BD090408BD090408D3
:1001880010B5054C237833B9044B13B10448AFF3C9
:1001980000800123237010BD0C0000200000000027
:1001A8000419040808B5034B1BB103490348AFF30E
:1001B800008008BD00000000100000200419040899
:1001C80053B94AB9002908BF00281CBF4FF0FF31B6
:1001D8004FF0FF3000F072B9ADF1080C6DE904CEB4
:1001E80000F006F8DDF804E0DDE9022304B070470A
:1001F8002DE9F047089E04468846002B4BD18A42D9
:10020800154667D9B2FA82F24AB1C2F1200701FA5B
:1002180002F320FA07F7954047EA030894404FEAAB
:10022800154E230CB8FBFEF71FFA85FC0EFB17884A
:1002380043EA084307FB0CF1994209D9EB1807F187
:10024800FF3080F01B81994240F21881023F2B4415
:100258005B1AA4B2B3FBFEF00EFB103344EA03446E
:1002680000FB0CFCA44509D92C1900F1FF3380F0E0
:100278000781A44540F2048102382C4440EA074033
:10028800A4EB0C0400271EB1D4400023C6E90043A8
:100298003946BDE8F0878B4209D9002E00F0EB8083
:1002A8000027C6E9000138463946BDE8F087B3FAA9
:1002B80083F7002F47D18B4202D3824200F2FA80A3
:1002C800841A61EB030301209846002EE0D0C6E9AA
:1002D8000048DDE702B9FFDEB2FA82F2002A40F0F8
:1002E8008F80491B4FEA154E1FFA85F80127B1FB8D
:1002F800FEFC230C0EFB1C1143EA014308FB0CF126
:10030800994207D9EB180CF1FF3002D2994200F25A
:10031800CD808446591AA3B2B1FBFEF00EFB10142F
:1003280043EA044408FB00F8A04507D92C1900F15A
:10033800FF3302D2A04500F2B6801846A4EB0804A9
:1003480040EA0C409FE7C7F1200CBB4022FA0CFEA4
:100358004EEA030E01FA07F420FA0CF521FA0CF321
:100368004FEA1E482543B3FBF8F92C0C08FB193358
:100378001FFA8EFA44EA034309FB0AF49C4202FA84
:1003880007F200FA07F10BD91EEB030309F1FF305E
:1003980080F087809C4240F28480A9F1020973446E
:1003A8001B1BADB2B3FBF8F008FB103345EA03445E
:1003B80000FB0AFAA24508D91EEB040400F1FF333A
:1003C8006BD2A24569D90238744440EA0940A0FBBF
:1003D8000289A4EB0A044C45C2464B4654D351D07B
:1003E800002E69D0B1EB0A0564EB030404FA0CFC97
:1003F800FD40FC404CEA0505C6E90054002747E7E4
:10040800C2F1200320FA03F7954001FA02F021FA1D
:1004180003F34FEA154E3843010CB3FBFEF71FFAFE
:1004280085F80EFB173341EA034107FB08F38B42BB
:1004380004FA02F407D9691807F1FF3C2FD28B425E
:100448002DD9023F2944CB1A81B2B3FBFEF00EFB33
:10045800103341EA034100FB08F38B4207D96918BE
:1004680000F1FF3C17D28B4215D902382944C91A2A
:1004780040EA07473BE73746304609E70746E7E6DD
:100488001846FBE64145ABD2B8EB020A69EB0E020F
:1004980001381346A4E76046E9E7184695E767463A
:1004A800D1E781467CE702382C4447E7ACF1020CDF
:1004B8002B442FE7384608E73746E9E6704700BF80
:1004C80080B500AF00F078FA00F00EF800F076F88A
:1004D8004FF48051034800F09CFD642000F0DEFAE0
:1004E800F6E700BF000C024080B594B000AF07F1FA
:1004F800200330220021184601F0F8F907F10C0317
:1005080000221A605A609A60DA601A610023BB60A0
:10051800284B1B6C274A43F080531364254B1B6CF4
:1005280003F08053BB60BB6800237B60224B1B68D1
:10053800214A43F4804313601F4B1B6803F4804334
:100548007B607B6802233B620123FB6210233B63D1
:100558000223BB630023FB6308233B6432237B64D1
:100568000423BB640723FB6407F12003184600F04B
:100578006BFD0346002B01D000F080F90F23FB60D0
:1005880002233B6100237B614FF4A053BB614FF40E
:100598008053FB6107F10C030021184600F0C4FFEB
:1005A8000346002B01D000F069F900BF5037BD4663
:1005B80080BD00BF003802400070004080B58CB09C
:1005C80000AF07F11C0300221A605A609A60DA60D3
:1005D8001A610023BB61A14B1B6BA04A43F01003B7
:1005E80013639E4B1B6B03F01003BB61BB690023B5
:1005F8007B619A4B1B6B994A43F004031363974B37
:100608001B6B03F004037B617B6900233B61934B05
:100618001B6B924A43F080031363904B1B6B03F0F0
:1006280080033B613B690023FB608C4B1B6B8B4A4F
:1006380043F001031363894B1B6B03F00103FB6059
:10064800FB680023BB60854B1B6B844A43F00203A5
:100658001363824B1B6B03F00203BB60BB68002370
:100668007B607E4B1B6B7D4A43F0080313637B4B17
:100678001B6B03F008037B607B6800220821784825
:1006880000F0AEFC01220121764800F0A9FC00220E
:100698004FF21001744800F0A3FC0823FB6101230A
:1006A8003B6200237B620023BB6207F11C031946EF
:1006B8006B4800F0FBFA0123FB6101233B62002336
:1006C8007B620023BB6207F11C031946654800F0F2
:1006D800EDFA0823FB6102233B6200237B620023BF
:1006E800BB620523FB6207F11C0319465D4800F055
:1006F800DDFA0123FB615D4B3B6200237B6207F15E
:100708001C0319465A4800F0D1FA1023FB61022352
:100718003B6200237B620023BB620623FB6207F176
:100728001C031946524800F0C1FAE023FB6102237A
:100738003B6200237B620023BB620523FB6207F157
:100748001C0319464A4800F0B1FA0423FB61002350
:100758003B6200237B6207F11C031946454800F001
:10076800A5FA4FF48063FB6102233B6200237B629E
:100778000023BB620523FB6207F11C0319463D48B1
:1007880000F094FA4FF21003FB6101233B6200234F
:100798007B620023BB6207F11C031946324800F054
:1007A80085FA4FF4A453FB6102233B6200237B626A
:1007B8000023BB620623FB6207F11C031946294884
:1007C80000F074FA4FF40073FB6100233B620023CE
:1007D8007B6207F11C031946254800F067FA4FF4BD
:1007E800E053FB6102233B6200237B620023BB6270
:1007F8000A23FB6207F11C0319461D4800F056FA4C
:100808002023FB6100233B6200237B6207F11C036A
:100818001946154800F04AFA4FF41073FB61122389
:100828003B6201237B620023BB620423FB6207F166
:100838001C0319460F4800F039FA0223FB610E4BDE
:100848003B6200237B6207F11C031946044800F051
:100858002DFA00BF3037BD4680BD00BF00380240CA
:100868000010024000080240000C02400000111075
:1008780000000240000402400000121080B400AFE3
:1008880000BFBD465DF8047B7047000080B483B0AC
:1008980000AF00237B60104B5B6C0F4A43F480432E
:1008A80053640D4B5B6C03F480437B607B680023CF
:1008B8003B60094B1B6C084A43F080531364064B9A
:1008C8001B6C03F080533B603B6800BF0C37BD4690
:1008D8005DF8047B704700BF0038024080B400AF69
:1008E80000BFBD465DF8047B704780B400AFFEE7EB
:1008F80080B400AFFEE780B400AFFEE780B400AF7D
:10090800FEE780B400AF00BFBD465DF8047B7047CA
:1009180080B400AF00BFBD465DF8047B704780B46B
:1009280000AF00BFBD465DF8047B704780B500AFDF
:1009380000F094F800BF80BD80B400AF084BD3F836
:100948008830074A43F47003C2F88830044B4FF0EC
:1009580000629A6000BFBD465DF8047B704700BF27
:1009680000ED00E0DFF834D0002103E00C4B5B58C9
:10097800435004310B480C4B42189A42F6D30B4AA9
:1009880002E0002342F8043B094B9A42F9D3FFF7EF
:10099800D3FF00F087FFFFF793FD704700000220A8
:1009A8003C190408000000200C0000200C00002066
:1009B8002C000020FEE7000080B500AF0E4B1B683E
:1009C8000D4A43F4007313600B4B1B680A4A43F447
:1009D80080631360084B1B68074A43F480731360F5
:1009E800032000F02FF9002000F008F8FFF74EFF71
:1009F8000023184680BD00BF003C024080B582B08D
:100A080000AF7860124B1A68124B1B7819464FF4E6
:100A18007A73B3FBF1F3B2FBF3F3184600F039F93C
:100A28000346002B01D001230EE07B680F2B0AD868
:100A3800002279684FF0FF3000F00FF9064A7B6812
:100A48001360002300E0012318460837BD4680BD27
:100A580000000020080000200400002080B400AF3F
:100A6800064B1B781A46064B1B681344044A13604E
:100A780000BFBD465DF8047B704700BF080000203A
:100A88002800002080B400AF034B1B681846BD4601
:100A98005DF8047B704700BF2800002080B584B053
:100AA80000AF7860FFF7EEFFB8607B68FB60FB681B
:100AB800B3F1FF3F05D0094B1B781A46FB68134476
:100AC800FB6000BFFFF7DEFF0246BB68D31AFA6877
:100AD8009A42F7D800BF1037BD4680BD08000020F5
:100AE80080B485B000AF78607B6803F00703FB60D3
:100AF8000C4BDB68BB60BA684FF6FF031340BB6062
:100B0800FB681A02BB68134343F0BF6343F4003326
:100B1800BB60044ABB68D36000BF1437BD465DF8AC
:100B2800047B704700ED00E080B400AF044BDB6845
:100B38001B0A03F007031846BD465DF8047B70479F
:100B480000ED00E080B483B000AF03463960FB716C
:100B580097F90730002B0ADB3B68DAB20C4997F9A2
:100B680007301201D2B20B4483F800230AE03B6835
:100B7800DAB20849FB7903F00F03043B1201D2B241
:100B88000B441A7600BF0C37BD465DF8047B7047EE
:100B980000E100E000ED00E080B489B000AFF8604B
:100BA800B9607A60FB6803F00703FB61FB69C3F176
:100BB8000703042B28BF0423BB61FB690433062BFE
:100BC80002D9FB69033B00E000237B614FF0FF3251
:100BD800BB6902FA03F3DA43BB681A407B699A409F
:100BE8004FF0FF317B6901FA03F3D9437B680B406F
:100BF800134318462437BD465DF8047B7047000050
:100C080080B582B000AF78607B68013BB3F1807F2C
:100C180001D301230FE00A4A7B68013B53600F218F
:100C28004FF0FF30FFF78EFF054B00229A60044B10
:100C380007221A60002318460837BD4680BD00BF4A
:100C480010E000E080B582B000AF78607868FFF708
:100C580047FF00BF0837BD4680BD80B586B000AFEE
:100C68000346B9607A60FB7300237B61FFF75CFF82
:100C780078617A68B9687869FFF78EFF024697F954
:100C88000F3011461846FFF75DFF00BF1837BD4605
:100C980080BD80B582B000AF78607868FFF7B0FF9C
:100CA800034618460837BD4680BD000080B489B0A9
:100CB80000AF7860396000237B6100233B6100232B
:100CC800BB610023FB616BE10122FB6902FA03F3BC
:100CD8007B613B681B687A6913403B613A697B69B1
:100CE8009A4240F05A813B685B68012B0BD03B6805
:100CF8005B68022B07D03B685B68112B03D03B680D
:100D08005B68122B30D17B689B68BB61FB695B0019
:100D1800032202FA03F3DB43BA691340BB613B6861
:100D2800DA68FB695B0002FA03F3BA691343BB6133
:100D38007B68BA699A607B685B68BB610122FB6962
:100D480002FA03F3DB43BA691340BB613B685B6893
:100D58001B0903F00102FB6902FA03F3BA691343A2
:100D6800BB617B68BA695A607B68DB68BB61FB69F9
:100D78005B00032202FA03F3DB43BA691340BB6149
:100D88003B689A68FB695B0002FA03F3BA6913438C
:100D9800BB617B68BA69DA603B685B68022B03D089
:100DA8003B685B68122B23D1FB69DA087B68083241
:100DB80053F82230BB61FB6903F007039B000F2245
:100DC80002FA03F3DB43BA691340BB613B681A6953
:100DD800FB6903F007039B0002FA03F3BA691343A4
:100DE800BB61FB69DA087B680832B96943F82210ED
:100DF8007B681B68BB61FB695B00032202FA03F393
:100E0800DB43BA691340BB613B685B6803F00302CC
:100E1800FB695B0002FA03F3BA691343BB617B68A1
:100E2800BA691A603B685B6803F08053002B00F0D6
:100E3800B4800023FB605F4B5B6C5E4A43F48043E5
:100E480053645C4B5B6C03F48043FB60FB685A4A59
:100E5800FB699B08023352F82330BB61FB6903F03E
:100E680003039B000F2202FA03F3DB43BA69134022
:100E7800BB617B68514A93422BD07B68504A9342AE
:100E880025D07B684F4A93421FD07B684E4A9342D5
:100E980019D07B684D4A934213D07B684C4A9342E1
:100EA8000DD07B684B4A934207D07B684A4A9342ED
:100EB80001D107230EE008230CE006230AE00523EE
:100EC80008E0042306E0032304E0022302E00123F0
:100ED80000E00023FA6902F0030292009340BA6925
:100EE8001343BB613449FB699B080233BA6941F873
:100EF80023203A4B1B68BB613B69DB43BA6913404B
:100F0800BB613B685B6803F48033002B03D0BA698C
:100F18003B691343BB61314ABB6913602F4B5B6864
:100F2800BB613B69DB43BA691340BB613B685B68E3
:100F380003F40033002B03D0BA693B691343BB6148
:100F4800264ABB695360254B9B68BB613B69DB4301
:100F5800BA691340BB613B685B6803F48013002BDC
:100F680003D0BA693B691343BB611C4ABB699360F0
:100F78001A4BDB68BB613B69DB43BA691340BB6151
:100F88003B685B6803F40013002B03D0BA693B6924
:100F98001343BB61114ABB69D360FB690133FB6131
:100FA800FB690F2B7FF690AE00BF2437BD465DF876
:100FB800047B7047003802400038014000000240BE
:100FC8000004024000080240000C024000100240E9
:100FD8000014024000180240001C0240003C01407E
:100FE80080B483B000AF78600B467B8013467B707B
:100FF8007B78002B03D07A887B689A6103E07B8832
:101008001A047B689A6100BF0C37BD465DF8047B03
:10101800704780B483B000AF78600B467B807B68F4
:101028005A697B881A407B889A4204D17B881A04C3
:101038007B689A6102E07A887B689A6100BF0C3706
:10104800BD465DF8047B704780B586B000AF786018
:101058007B68002B01D101235BE27B681B6803F0EE
:101068000103002B75D0A34B9B6803F00C03042BE2
:101078000CD0A04B9B6803F00C03082B12D19D4B9E
:101088005B6803F48003B3F5800F0BD1994B1B68A1
:1010980003F40033002B5BD07B685B68002B57D1CF
:1010A800012336E27B685B68B3F5803F06D1914B3C
:1010B8001B68904A43F4803313601DE07B685B68CB
:1010C800B3F5A02F0CD18B4B1B688A4A43F48023BD
:1010D8001360884B1B68874A43F4803313600BE026
:1010E800844B1B68834A23F480331360814B1B684D
:1010F800804A23F4802313607B685B68002B13D03D
:10110800FFF7C0FC386108E0FFF7BCFC02463B690A
:10111800D31A642B01D90323FBE1764B1B6803F434
:101128000033002BF0D014E0FFF7ACFC386108E086
:10113800FFF7A8FC02463B69D31A642B01D90323A5
:10114800E7E16C4B1B6803F40033002BF0D100E09F
:1011580000BF7B681B6803F00203002B63D0654B5C
:101168009B6803F00C03002B0BD0624B9B6803F0C9
:101178000C03082B1CD15F4B5B6803F48003002B26
:1011880016D15C4B1B6803F00203002B05D07B686B
:10119800DB68012B01D00123BBE1564B1B6823F010
:1011A800F8027B681B69DB00524913430B603AE085
:1011B8007B68DB68002B20D04F4B01221A60FFF7B9
:1011C80061FC386108E0FFF75DFC02463B69D31A11
:1011D800022B01D903239CE1464B1B6803F0020351
:1011E800002BF0D0434B1B6823F0F8027B681B6987
:1011F800DB00404913430B6015E03F4B00221A60A7
:10120800FFF740FC386108E0FFF73CFC02463B6909
:10121800D31A022B01D903237BE1364B1B6803F059
:101228000203002BF0D17B681B6803F00803002B36
:1012380030D07B685B69002B16D0304B01221A60D6
:10124800FFF720FC386108E0FFF71CFC02463B6909
:10125800D31A022B01D903235BE1264B5B6F03F002
:101268000203002BF0D015E0244B00221A60FFF790
:1012780009FC386108E0FFF705FC02463B69D31A10
:10128800022B01D9032344E11A4B5B6F03F00203DD
:10129800002BF0D17B681B6803F00403002B00F0DF
:1012A800A0800023FB75134B1B6C03F08053002BAD
:1012B8000FD10023BB600F4B1B6C0E4A43F08053C9
:1012C80013640C4B1B6C03F08053BB60BB68012399
:1012D800FB750B4B1B6803F48073002B21D1084B63
:1012E8001B68074A43F480731360FFF7CBFB386130
:1012F80011E000BF0038024000004742800E47421C
:1013080000700040FFF7BEFB02463B69D31A022B70
:1013180001D90323FDE0814B1B6803F48073002B84
:10132800F0D07B689B68012B06D17D4B1B6F7C4AF4
:1013380043F0010313671CE07B689B68052B0CD105
:10134800774B1B6F764A43F004031367744B1B6F8C
:10135800734A43F0010313670BE0714B1B6F704A2C
:1013680023F0010313676E4B1B6F6D4A23F00403D0
:1013780013677B689B68002B15D0FFF783FB3861E8
:101388000AE0FFF77FFB02463B69D31A41F2883235
:10139800934201D90323BCE0614B1B6F03F00203A6
:1013A800002BEED014E0FFF76DFB38610AE0FFF781
:1013B80069FB02463B69D31A41F28832934201D94C
:1013C8000323A6E0564B1B6F03F00203002BEED15C
:1013D800FB7D012B05D1524B1B6C514A23F08053E6
:1013E80013647B689B69002B00F092804C4B9B68D0
:1013F80003F00C03082B5CD07B689B69022B41D15E
:10140800484B00221A60FFF73DFB386108E0FFF700
:1014180039FB02463B69D31A022B01D9032378E032
:101428003F4B1B6803F00073002BF0D17B68DA692F
:101438007B681B6A1A437B685B6A9B011A437B685B
:101448009B6A5B08013B1B041A437B68DB6A1B062B
:10145800334913434B60334B01221A60FFF712FBE9
:10146800386108E0FFF70EFB02463B69D31A022BEE
:1014780001D903234DE02A4B1B6803F00073002BAE
:10148800F0D045E0274B00221A60FFF7FBFA3861DD
:1014980008E0FFF7F7FA02463B69D31A022B01D995
:1014A800032336E01E4B1B6803F00073002BF0D1BA
:1014B8002EE07B689B69012B01D1012329E0184BA1
:1014C8009B68FB60FB6803F480027B68DB699A42D7
:1014D8001CD1FB6803F03F027B681B6A9A4215D156
:1014E800FA6847F6C07313407A68526A93420DD17E
:1014F800FB6803F440327B689B6A9A4206D1FB681A
:1015080003F070627B68DB6A9A4201D0012300E035
:10151800002318461837BD4680BD00BF0070004044
:10152800003802406000474280B584B000AF786060
:1015380039607B68002B01D10123CCE0684B1B6824
:1015480003F00F033A689A420CD9654B3A68D2B255
:101558001A70634B1B6803F00F033A689A4201D074
:101568000123B8E07B681B6803F00203002B20D03E
:101578007B681B6803F00403002B05D0594B9B685C
:10158800584A43F4E05393607B681B6803F00803F0
:10159800002B05D0534B9B68524A43F46043936039
:1015A800504B9B6823F0F0027B689B684D491343BE
:1015B8008B607B681B6803F00103002B44D07B68B9
:1015C8005B68012B07D1474B1B6803F40033002BE2
:1015D80019D101237FE07B685B68022B03D07B680D
:1015E8005B68032B07D13F4B1B6803F00073002B8C
:1015F80009D101236FE03B4B1B6803F00203002B6A
:1016080001D1012367E0374B9B6823F003027B6815
:101618005B68344913438B60FFF734FAF8600AE0DB
:10162800FFF730FA0246FB68D31A41F28832934238
:1016380001D903234FE02B4B9B6803F00C027B6816
:101648005B689B009A42EBD1254B1B6803F00F03A4
:101658003A689A420CD2224B3A68D2B21A70204B9E
:101668001B6803F00F033A689A4201D0012332E065
:101678007B681B6803F00403002B08D0194B9B6898
:1016880023F4E0527B68DB68164913438B607B6860
:101698001B6803F00803002B09D0124B9B6823F446
:1016A80060427B681B69DB000E4913438B6000F0C6
:1016B80021F801460B4B9B681B0903F00F030A4AEC
:1016C800D35C21FA03F3094A1360094B1B681846D7
:1016D800FFF794F9002318461037BD4680BD00BFB8
:1016E800003C0240003802401C1904080000002099
:1016F80004000020F0B585B000AF00237B60002314
:10170800FB6000233B600023BB60634B9B6803F0D6
:101718000C03042B07D0082B08D0002B40F0B48012
:101728005E4BBB60B3E05E4BBB60B0E05A4B5B689E
:1017380003F03F037B60584B5B6803F48003002B86
:101748004AD0554B5B689B094FF0000440F2FF11EB
:101758004FF0000203EA010504EA02062946324670
:101768004FF000034FF00004540144EAD1644B01E8
:1017780019462246491B62EB06024FF000034FF060
:101788000004940144EA91648B015B1A64EB02043F
:101798004FF000014FF00002E20042EA5372D90014
:1017A8000B4614465B1944EB06044FF000014FF05A
:1017B8000002620242EAD35259020B461446184606
:1017C80021467B684FF000041A462346FEF7F8FCD2
:1017D80003460C46FB6049E02F4B5B689B094FF0C2
:1017E800000440F2FF114FF0000203EA010504EA89
:1017F8000206294632464FF000034FF00004540118
:1018080044EAD1644B0119462246491B62EB0602A1
:101818004FF000034FF00004940144EA91648B01F7
:101828005B1A64EB02044FF000014FF00002E20083
:1018380042EA5372D9000B4614465B1944EB06047E
:101848004FF000014FF00002A20242EA93529902BF
:101858000B461446184621467B684FF000041A468A
:101868002346FEF7ADFC03460C46FB600A4B5B685B
:101878001B0C03F0030301335B003B60FA683B6811
:10188800B2FBF3F3BB6002E0044BBB6000BFBB6874
:1018980018461437BD46F0BD003802400024F40055
:1018A80000127A0070B50D4E0D4CA41BA410002533
:1018B800A54209D10B4E0C4C00F020F8A41BA41033
:1018C8000025A54205D170BD56F825309847013549
:1018D800EEE756F8253098470135F2E73419040841
:1018E8003419040834190408381904080244034652
:1018F800934200D1704703F8011BF9E7F8B500BF20
:10190800F8BC08BC9E467047F8B500BFF8BC08BCD8
:041918009E46704730
:10191C000000000000000000010203040607080993
:08192C00CCE8FF7F0100000080
:04193400AD010408F5
:041938008901040815
:0C193C000024F400100000000100000076
:040000050804096D75
:00000001FF
